{"abi":[{"type":"function","name":"createAgent","inputs":[{"name":"_tokens","type":"address[]","internalType":"address[]"},{"name":"_platformType","type":"uint8","internalType":"enum Platform"},{"name":"authorizedSigner","type":"address","internalType":"address"}],"outputs":[{"name":"","type":"address","internalType":"contract Agent"}],"stateMutability":"payable"},{"type":"function","name":"getAgentInfo","inputs":[{"name":"user","type":"address","internalType":"address"},{"name":"index","type":"uint256","internalType":"uint256"}],"outputs":[{"name":"","type":"tuple","internalType":"struct AgentFactory.AgentInfo","components":[{"name":"agentAddress","type":"address","internalType":"address"},{"name":"owner","type":"address","internalType":"address"},{"name":"tokens","type":"address[]","internalType":"address[]"},{"name":"amountInvested","type":"uint256","internalType":"uint256"},{"name":"platformType","type":"uint8","internalType":"enum Platform"}]}],"stateMutability":"view"},{"type":"function","name":"userToAgents","inputs":[{"name":"user","type":"address","internalType":"address"},{"name":"","type":"uint256","internalType":"uint256"}],"outputs":[{"name":"agentAddress","type":"address","internalType":"address"},{"name":"owner","type":"address","internalType":"address"},{"name":"amountInvested","type":"uint256","internalType":"uint256"},{"name":"platformType","type":"uint8","internalType":"enum Platform"}],"stateMutability":"view"},{"type":"event","name":"Factory__AgentCreated","inputs":[{"name":"agentAddress","type":"address","indexed":true,"internalType":"address"},{"name":"platform","type":"uint8","indexed":true,"internalType":"enum Platform"},{"name":"tokens","type":"address[]","indexed":true,"internalType":"address[]"}],"anonymous":false},{"type":"error","name":"Factory__AmountIsZero","inputs":[]},{"type":"error","name":"Factory__NoTokenPresent","inputs":[]},{"type":"error","name":"Factory__PlatformNotAvailable","inputs":[]}],"bytecode":{"object":"0x608060405234801561000f575f80fd5b50612cc18061001d5f395ff3fe60806040526004361062000037575f3560e01c8063168f80f5146200003b57806336fec6f4146200007e578063d7cf552214620000b4575b5f80fd5b34801562000047575f80fd5b50620000666004803603810190620000609190620008de565b620000fa565b60405162000075919062000af4565b60405180910390f35b6200009c600480360381019062000096919062000ca8565b620002b5565b604051620000ab919062000d87565b60405180910390f35b348015620000c0575f80fd5b50620000df6004803603810190620000d99190620008de565b620005e1565b604051620000f1949392919062000dd5565b60405180910390f35b6200010462000711565b5f805f8573ffffffffffffffffffffffffffffffffffffffff1673ffffffffffffffffffffffffffffffffffffffff1681526020019081526020015f20838154811062000156576200015562000e20565b5b905f5260205f20906005020190506040518060a00160405280825f015f9054906101000a900473ffffffffffffffffffffffffffffffffffffffff1673ffffffffffffffffffffffffffffffffffffffff168152602001826001015f9054906101000a900473ffffffffffffffffffffffffffffffffffffffff1673ffffffffffffffffffffffffffffffffffffffff168152602001826002018054806020026020016040519081016040528092919081815260200182805480156200026f57602002820191905f5260205f20905b815f9054906101000a900473ffffffffffffffffffffffffffffffffffffffff1673ffffffffffffffffffffffffffffffffffffffff168152602001906001019080831162000225575b5050505050815260200182600301548152602001826004015f9054906101000a900460ff166002811115620002a957620002a8620009fb565b5b81525091505092915050565b5f80845103620002f1576040517fe4de7e2800000000000000000000000000000000000000000000000000000000815260040160405180910390fd5b620002fc8362000671565b62000333576040517f8be725eb00000000000000000000000000000000000000000000000000000000815260040160405180910390fd5b5f34116200036d576040517f8d23f58400000000000000000000000000000000000000000000000000000000815260040160405180910390fd5b5f348585853360405162000381906200077d565b62000390949392919062000ec5565b6040518091039082f0905080158015620003ac573d5f803e3d5ffd5b5090505f6040518060a001604052808373ffffffffffffffffffffffffffffffffffffffff1681526020013373ffffffffffffffffffffffffffffffffffffffff168152602001878152602001348152602001866002811115620004155762000414620009fb565b5b81525090505f803373ffffffffffffffffffffffffffffffffffffffff1673ffffffffffffffffffffffffffffffffffffffff1681526020019081526020015f2081908060018154018082558091505060019003905f5260205f2090600502015f909190919091505f820151815f015f6101000a81548173ffffffffffffffffffffffffffffffffffffffff021916908373ffffffffffffffffffffffffffffffffffffffff1602179055506020820151816001015f6101000a81548173ffffffffffffffffffffffffffffffffffffffff021916908373ffffffffffffffffffffffffffffffffffffffff1602179055506040820151816002019080519060200190620005259291906200078b565b50606082015181600301556080820151816004015f6101000a81548160ff021916908360028111156200055d576200055c620009fb565b5b021790555050508560405162000574919062000fb3565b6040518091039020856002811115620005925762000591620009fb565b5b8373ffffffffffffffffffffffffffffffffffffffff167f35b1962c0b57f46116a95b7d19ff95561754850e955cc61c704db785a3115aea60405160405180910390a481925050509392505050565b5f602052815f5260405f208181548110620005fa575f80fd5b905f5260205f2090600502015f9150915050805f015f9054906101000a900473ffffffffffffffffffffffffffffffffffffffff1690806001015f9054906101000a900473ffffffffffffffffffffffffffffffffffffffff1690806003015490806004015f9054906101000a900460ff16905084565b5f60016002811115620006895762000688620009fb565b5b8260028111156200069f576200069e620009fb565b5b1480620006d557505f6002811115620006bd57620006bc620009fb565b5b826002811115620006d357620006d2620009fb565b5b145b806200070a5750600280811115620006f257620006f1620009fb565b5b826002811115620007085762000707620009fb565b5b145b9050919050565b6040518060a001604052805f73ffffffffffffffffffffffffffffffffffffffff1681526020015f73ffffffffffffffffffffffffffffffffffffffff168152602001606081526020015f81526020015f6002811115620007775762000776620009fb565b5b81525090565b611cc08062000fcc83390190565b828054828255905f5260205f2090810192821562000804579160200282015b8281111562000803578251825f6101000a81548173ffffffffffffffffffffffffffffffffffffffff021916908373ffffffffffffffffffffffffffffffffffffffff16021790555091602001919060010190620007aa565b5b50905062000813919062000817565b5090565b5b8082111562000830575f815f90555060010162000818565b5090565b5f604051905090565b5f80fd5b5f80fd5b5f73ffffffffffffffffffffffffffffffffffffffff82169050919050565b5f620008708262000845565b9050919050565b620008828162000864565b81146200088d575f80fd5b50565b5f81359050620008a08162000877565b92915050565b5f819050919050565b620008ba81620008a6565b8114620008c5575f80fd5b50565b5f81359050620008d881620008af565b92915050565b5f8060408385031215620008f757620008f66200083d565b5b5f620009068582860162000890565b92505060206200091985828601620008c8565b9150509250929050565b6200092e8162000864565b82525050565b5f81519050919050565b5f82825260208201905092915050565b5f819050602082019050919050565b5f6200096a838362000923565b60208301905092915050565b5f602082019050919050565b5f6200098e8262000934565b6200099a81856200093e565b9350620009a7836200094e565b805f5b83811015620009dd578151620009c188826200095d565b9750620009ce8362000976565b925050600181019050620009aa565b5085935050505092915050565b620009f581620008a6565b82525050565b7f4e487b71000000000000000000000000000000000000000000000000000000005f52602160045260245ffd5b6003811062000a3c5762000a3b620009fb565b5b50565b5f81905062000a4e8262000a28565b919050565b5f62000a5f8262000a3f565b9050919050565b62000a718162000a53565b82525050565b5f60a083015f83015162000a8e5f86018262000923565b50602083015162000aa3602086018262000923565b506040830151848203604086015262000abd828262000982565b915050606083015162000ad46060860182620009ea565b50608083015162000ae9608086018262000a66565b508091505092915050565b5f6020820190508181035f83015262000b0e818462000a77565b905092915050565b5f80fd5b5f601f19601f8301169050919050565b7f4e487b71000000000000000000000000000000000000000000000000000000005f52604160045260245ffd5b62000b628262000b1a565b810181811067ffffffffffffffff8211171562000b845762000b8362000b2a565b5b80604052505050565b5f62000b9862000834565b905062000ba6828262000b57565b919050565b5f67ffffffffffffffff82111562000bc85762000bc762000b2a565b5b602082029050602081019050919050565b5f80fd5b5f62000bf362000bed8462000bab565b62000b8d565b9050808382526020820190506020840283018581111562000c195762000c1862000bd9565b5b835b8181101562000c46578062000c31888262000890565b84526020840193505060208101905062000c1b565b5050509392505050565b5f82601f83011262000c675762000c6662000b16565b5b813562000c7984826020860162000bdd565b91505092915050565b6003811062000c8f575f80fd5b50565b5f8135905062000ca28162000c82565b92915050565b5f805f6060848603121562000cc25762000cc16200083d565b5b5f84013567ffffffffffffffff81111562000ce25762000ce162000841565b5b62000cf08682870162000c50565b935050602062000d038682870162000c92565b925050604062000d168682870162000890565b9150509250925092565b5f819050919050565b5f62000d4962000d4362000d3d8462000845565b62000d20565b62000845565b9050919050565b5f62000d5c8262000d29565b9050919050565b5f62000d6f8262000d50565b9050919050565b62000d818162000d63565b82525050565b5f60208201905062000d9c5f83018462000d76565b92915050565b62000dad8162000864565b82525050565b62000dbe81620008a6565b82525050565b62000dcf8162000a53565b82525050565b5f60808201905062000dea5f83018762000da2565b62000df9602083018662000da2565b62000e08604083018562000db3565b62000e17606083018462000dc4565b95945050505050565b7f4e487b71000000000000000000000000000000000000000000000000000000005f52603260045260245ffd5b5f82825260208201905092915050565b5f62000e698262000934565b62000e75818562000e4d565b935062000e82836200094e565b805f5b8381101562000eb857815162000e9c88826200095d565b975062000ea98362000976565b92505060018101905062000e85565b5085935050505092915050565b5f6080820190508181035f83015262000edf818762000e5d565b905062000ef0602083018662000dc4565b62000eff604083018562000da2565b62000f0e606083018462000da2565b95945050505050565b5f81905092915050565b62000f2c8162000864565b82525050565b5f62000f3f838362000f21565b60208301905092915050565b5f62000f578262000934565b62000f63818562000f17565b935062000f70836200094e565b805f5b8381101562000fa657815162000f8a888262000f32565b975062000f978362000976565b92505060018101905062000f73565b5085935050505092915050565b5f62000fc0828462000f4b565b91508190509291505056fe61010060405260405162001cc038038062001cc083398181016040528101906200002a91906200048c565b60015f819055505f5b8451811015620000c557600160025f8784815181106200005857620000576200051a565b5b602002602001015173ffffffffffffffffffffffffffffffffffffffff1673ffffffffffffffffffffffffffffffffffffffff1681526020019081526020015f205f6101000a81548160ff0219169083151502179055508080620000bc906200057d565b91505062000033565b508260035f6101000a81548160ff02191690836002811115620000ed57620000ec620005c9565b5b021790555080600360016101000a81548173ffffffffffffffffffffffffffffffffffffffff021916908373ffffffffffffffffffffffffffffffffffffffff1602179055508173ffffffffffffffffffffffffffffffffffffffff1660808173ffffffffffffffffffffffffffffffffffffffff1681525050346004819055504660a081815250503073ffffffffffffffffffffffffffffffffffffffff1660c08173ffffffffffffffffffffffffffffffffffffffff16815250507f8b73c3c69bb8fe3d512ecc4cf759cc79239f7b179b0ffacaa9a75d522b39400f6040518060400160405280600581526020017f4167656e74000000000000000000000000000000000000000000000000000000815250805190602001206040518060400160405280600181526020017f31000000000000000000000000000000000000000000000000000000000000008152508051906020012060a05160c0516040516020016200026195949392919062000632565b6040516020818303038152906040528051906020012060e08181525050505050506200068d565b5f604051905090565b5f80fd5b5f80fd5b5f80fd5b5f601f19601f8301169050919050565b7f4e487b71000000000000000000000000000000000000000000000000000000005f52604160045260245ffd5b620002e5826200029d565b810181811067ffffffffffffffff82111715620003075762000306620002ad565b5b80604052505050565b5f6200031b62000288565b9050620003298282620002da565b919050565b5f67ffffffffffffffff8211156200034b576200034a620002ad565b5b602082029050602081019050919050565b5f80fd5b5f73ffffffffffffffffffffffffffffffffffffffff82169050919050565b5f6200038b8262000360565b9050919050565b6200039d816200037f565b8114620003a8575f80fd5b50565b5f81519050620003bb8162000392565b92915050565b5f620003d7620003d1846200032e565b62000310565b90508083825260208201905060208402830185811115620003fd57620003fc6200035c565b5b835b818110156200042a5780620004158882620003ab565b845260208401935050602081019050620003ff565b5050509392505050565b5f82601f8301126200044b576200044a62000299565b5b81516200045d848260208601620003c1565b91505092915050565b6003811062000473575f80fd5b50565b5f81519050620004868162000466565b92915050565b5f805f8060808587031215620004a757620004a662000291565b5b5f85015167ffffffffffffffff811115620004c757620004c662000295565b5b620004d58782880162000434565b9450506020620004e88782880162000476565b9350506040620004fb87828801620003ab565b92505060606200050e87828801620003ab565b91505092959194509250565b7f4e487b71000000000000000000000000000000000000000000000000000000005f52603260045260245ffd5b7f4e487b71000000000000000000000000000000000000000000000000000000005f52601160045260245ffd5b5f819050919050565b5f620005898262000574565b91507fffffffffffffffffffffffffffffffffffffffffffffffffffffffffffffffff8203620005be57620005bd62000547565b5b600182019050919050565b7f4e487b71000000000000000000000000000000000000000000000000000000005f52602160045260245ffd5b5f819050919050565b6200060a81620005f6565b82525050565b6200061b8162000574565b82525050565b6200062c816200037f565b82525050565b5f60a082019050620006475f830188620005ff565b620006566020830187620005ff565b620006656040830186620005ff565b62000674606083018562000610565b62000683608083018462000621565b9695505050505050565b60805160a05160c05160e0516115f0620006d05f395f81816109c00152610c8001525f50505f50505f81816102720152818161097c0152610a9001526115f05ff3fe6080604052600436106100a6575f3560e01c8063893d20e811610063578063893d20e81461018e57806399d85919146101b8578063a26759cb146101ce578063c7067036146101d8578063ea31324d14610202578063ed24911d1461023e576100a6565b80630a8fa8fe146100aa5780631c0de051146100d257806324600fc3146100fc578063285f8b4f146101125780635d00bb12146101285780638904727b14610164575b5f80fd5b3480156100b5575f80fd5b506100d060048036038101906100cb919061121e565b610268565b005b3480156100dd575f80fd5b506100e6610543565b6040516100f39190611295565b60405180910390f35b348015610107575f80fd5b50610110610559565b005b34801561011d575f80fd5b5061012661060a565b005b348015610133575f80fd5b5061014e600480360381019061014991906112ae565b610721565b60405161015b9190611295565b60405180910390f35b34801561016f575f80fd5b50610178610747565b60405161018591906112e8565b60405180910390f35b348015610199575f80fd5b506101a2610750565b6040516101af9190611310565b60405180910390f35b3480156101c3575f80fd5b506101cc610779565b005b6101d661088e565b005b3480156101e3575f80fd5b506101ec610979565b6040516101f99190611310565b60405180910390f35b34801561020d575f80fd5b5061022860048036038101906102239190611329565b6109a0565b6040516102359190611295565b60405180910390f35b348015610249575f80fd5b506102526109bd565b60405161025f919061136c565b60405180910390f35b6102706109e4565b7f000000000000000000000000000000000000000000000000000000000000000073ffffffffffffffffffffffffffffffffffffffff163373ffffffffffffffffffffffffffffffffffffffff16146102f5576040517f3e5b764a00000000000000000000000000000000000000000000000000000000815260040160405180910390fd5b8260600151421115610333576040517f83fc09f200000000000000000000000000000000000000000000000000000000815260040160405180910390fd5b6001151560015f856080015181526020019081526020015f205f9054906101000a900460ff16151503610392576040517fe3470f0700000000000000000000000000000000000000000000000000000000815260040160405180910390fd5b604182829050146103cf576040517f09ac0d9600000000000000000000000000000000000000000000000000000000815260040160405180910390fd5b5f151560025f855f015173ffffffffffffffffffffffffffffffffffffffff1673ffffffffffffffffffffffffffffffffffffffff1681526020019081526020015f205f9054906101000a900460ff16151503610458576040517f11a5862200000000000000000000000000000000000000000000000000000000815260040160405180910390fd5b5f610464848484610a28565b90508061049d576040517f672affd500000000000000000000000000000000000000000000000000000000815260040160405180910390fd5b6001805f866080015181526020019081526020015f205f6101000a81548160ff021916908315150217905550835f015173ffffffffffffffffffffffffffffffffffffffff163373ffffffffffffffffffffffffffffffffffffffff167f28c5291982031b0198c61485da1acda86559b664d361cfd45c98d0a0b49188b7866020015160405161052d91906112e8565b60405180910390a35061053e610ae8565b505050565b5f600360159054906101000a900460ff16905090565b6105616109e4565b600360019054906101000a900473ffffffffffffffffffffffffffffffffffffffff1673ffffffffffffffffffffffffffffffffffffffff163373ffffffffffffffffffffffffffffffffffffffff16146105e8576040517f4de516d500000000000000000000000000000000000000000000000000000000815260040160405180910390fd5b6105f061060a565b6105f8610af1565b610600610779565b610608610ae8565b565b600360019054906101000a900473ffffffffffffffffffffffffffffffffffffffff1673ffffffffffffffffffffffffffffffffffffffff163373ffffffffffffffffffffffffffffffffffffffff1614610691576040517f4de516d500000000000000000000000000000000000000000000000000000000815260040160405180910390fd5b600360159054906101000a900460ff16156106d8576040517feb1780ae00000000000000000000000000000000000000000000000000000000815260040160405180910390fd5b6001600360156101000a81548160ff0219169083151502179055507ffe25bd4f8040d1cf2c6a94aaf308a776cc7548c5f81f8e80cc0cc1351209342d60405160405180910390a1565b5f60015f8381526020019081526020015f205f9054906101000a900460ff169050919050565b5f600454905090565b5f600360019054906101000a900473ffffffffffffffffffffffffffffffffffffffff16905090565b600360019054906101000a900473ffffffffffffffffffffffffffffffffffffffff1673ffffffffffffffffffffffffffffffffffffffff163373ffffffffffffffffffffffffffffffffffffffff1614610800576040517f4de516d500000000000000000000000000000000000000000000000000000000815260040160405180910390fd5b600360159054906101000a900460ff16610846576040517f8856341d00000000000000000000000000000000000000000000000000000000815260040160405180910390fd5b5f600360156101000a81548160ff0219169083151502179055507f1bf06a3dd05cc27138e37856b35242540bdfcd8632c950355899ce6d2505e0c860405160405180910390a1565b6108966109e4565b600360019054906101000a900473ffffffffffffffffffffffffffffffffffffffff1673ffffffffffffffffffffffffffffffffffffffff163373ffffffffffffffffffffffffffffffffffffffff161461091d576040517f4de516d500000000000000000000000000000000000000000000000000000000815260040160405180910390fd5b5f3403610956576040517f7842d8c600000000000000000000000000000000000000000000000000000000815260040160405180910390fd5b61095e61060a565b61096734610c18565b61096f610779565b610977610ae8565b565b5f7f0000000000000000000000000000000000000000000000000000000000000000905090565b6002602052805f5260405f205f915054906101000a900460ff1681565b5f7f0000000000000000000000000000000000000000000000000000000000000000905090565b60025f5403610a1f576040517f3ee5aeb500000000000000000000000000000000000000000000000000000000815260040160405180910390fd5b60025f81905550565b5f80610a3385610c7d565b90505f610a8c85858080601f0160208091040260200160405190810160405280939291908181526020018383808284375f81840152601f19601f8201169050808301925050505050505083610cd690919063ffffffff16565b90507f000000000000000000000000000000000000000000000000000000000000000073ffffffffffffffffffffffffffffffffffffffff168173ffffffffffffffffffffffffffffffffffffffff1614925050509392505050565b60015f81905550565b5f60045490505f600360019054906101000a900473ffffffffffffffffffffffffffffffffffffffff1673ffffffffffffffffffffffffffffffffffffffff1682604051610b3e906113b2565b5f6040518083038185875af1925050503d805f8114610b78576040519150601f19603f3d011682016040523d82523d5f602084013e610b7d565b606091505b505090506001151581151514610bbf576040517f3c2b0d1900000000000000000000000000000000000000000000000000000000815260040160405180910390fd5b5f6004819055503373ffffffffffffffffffffffffffffffffffffffff167f36da00f066048648e919174f126e04470e9daef588b9a0bd9694ab8860900ba583604051610c0c91906112e8565b60405180910390a25050565b80600454610c2691906113f3565b6004819055503373ffffffffffffffffffffffffffffffffffffffff167f91f45209e53d360913c60d41a370b6d4032c23f27bb6406f73bb1360d81fdfdf82604051610c7291906112e8565b60405180910390a250565b5f7f0000000000000000000000000000000000000000000000000000000000000000610ca883610d00565b604051602001610cb992919061149a565b604051602081830303815290604052805190602001209050919050565b5f805f80610ce48686610d6c565b925092509250610cf48282610dc1565b82935050505092915050565b5f7f141bcd0672ca80d3c8b1f2f53e01a54d998f8cf6897fadd30dcddf2ae51b4e69825f01518360200151846040015185606001518660800151604051602001610d4f969594939291906114d0565b604051602081830303815290604052805190602001209050919050565b5f805f6041845103610dac575f805f602087015192506040870151915060608701515f1a9050610d9e88828585610f23565b955095509550505050610dba565b5f600285515f1b9250925092505b9250925092565b5f6003811115610dd457610dd361152f565b5b826003811115610de757610de661152f565b5b0315610f1f5760016003811115610e0157610e0061152f565b5b826003811115610e1457610e1361152f565b5b03610e4b576040517ff645eedf00000000000000000000000000000000000000000000000000000000815260040160405180910390fd5b60026003811115610e5f57610e5e61152f565b5b826003811115610e7257610e7161152f565b5b03610eb657805f1c6040517ffce698f7000000000000000000000000000000000000000000000000000000008152600401610ead91906112e8565b60405180910390fd5b600380811115610ec957610ec861152f565b5b826003811115610edc57610edb61152f565b5b03610f1e57806040517fd78bce0c000000000000000000000000000000000000000000000000000000008152600401610f15919061136c565b60405180910390fd5b5b5050565b5f805f7f7fffffffffffffffffffffffffffffff5d576e7357a4501ddfe92f46681b20a0845f1c1115610f5f575f600385925092509250611000565b5f6001888888886040515f8152602001604052604051610f829493929190611577565b6020604051602081039080840390855afa158015610fa2573d5f803e3d5ffd5b5050506020604051035190505f73ffffffffffffffffffffffffffffffffffffffff168173ffffffffffffffffffffffffffffffffffffffff1603610ff3575f60015f801b93509350935050611000565b805f805f1b935093509350505b9450945094915050565b5f604051905090565b5f80fd5b5f80fd5b5f80fd5b5f601f19601f8301169050919050565b7f4e487b71000000000000000000000000000000000000000000000000000000005f52604160045260245ffd5b6110658261101f565b810181811067ffffffffffffffff821117156110845761108361102f565b5b80604052505050565b5f61109661100a565b90506110a2828261105c565b919050565b5f73ffffffffffffffffffffffffffffffffffffffff82169050919050565b5f6110d0826110a7565b9050919050565b6110e0816110c6565b81146110ea575f80fd5b50565b5f813590506110fb816110d7565b92915050565b5f819050919050565b61111381611101565b811461111d575f80fd5b50565b5f8135905061112e8161110a565b92915050565b5f60a082840312156111495761114861101b565b5b61115360a061108d565b90505f611162848285016110ed565b5f83015250602061117584828501611120565b602083015250604061118984828501611120565b604083015250606061119d84828501611120565b60608301525060806111b184828501611120565b60808301525092915050565b5f80fd5b5f80fd5b5f80fd5b5f8083601f8401126111de576111dd6111bd565b5b8235905067ffffffffffffffff8111156111fb576111fa6111c1565b5b602083019150836001820283011115611217576112166111c5565b5b9250929050565b5f805f60c0848603121561123557611234611013565b5b5f61124286828701611134565b93505060a084013567ffffffffffffffff81111561126357611262611017565b5b61126f868287016111c9565b92509250509250925092565b5f8115159050919050565b61128f8161127b565b82525050565b5f6020820190506112a85f830184611286565b92915050565b5f602082840312156112c3576112c2611013565b5b5f6112d084828501611120565b91505092915050565b6112e281611101565b82525050565b5f6020820190506112fb5f8301846112d9565b92915050565b61130a816110c6565b82525050565b5f6020820190506113235f830184611301565b92915050565b5f6020828403121561133e5761133d611013565b5b5f61134b848285016110ed565b91505092915050565b5f819050919050565b61136681611354565b82525050565b5f60208201905061137f5f83018461135d565b92915050565b5f81905092915050565b50565b5f61139d5f83611385565b91506113a88261138f565b5f82019050919050565b5f6113bc82611392565b9150819050919050565b7f4e487b71000000000000000000000000000000000000000000000000000000005f52601160045260245ffd5b5f6113fd82611101565b915061140883611101565b92508282019050808211156114205761141f6113c6565b5b92915050565b5f81905092915050565b7f19010000000000000000000000000000000000000000000000000000000000005f82015250565b5f611464600283611426565b915061146f82611430565b600282019050919050565b5f819050919050565b61149461148f82611354565b61147a565b82525050565b5f6114a482611458565b91506114b08285611483565b6020820191506114c08284611483565b6020820191508190509392505050565b5f60c0820190506114e35f83018961135d565b6114f06020830188611301565b6114fd60408301876112d9565b61150a60608301866112d9565b61151760808301856112d9565b61152460a08301846112d9565b979650505050505050565b7f4e487b71000000000000000000000000000000000000000000000000000000005f52602160045260245ffd5b5f60ff82169050919050565b6115718161155c565b82525050565b5f60808201905061158a5f83018761135d565b6115976020830186611568565b6115a4604083018561135d565b6115b1606083018461135d565b9594505050505056fea2646970667358221220721cf44340c46c3aeb31b3bb4d7239f2ccc53397a9820805f13ae46104dbadbc64736f6c63430008140033a2646970667358221220fe87885d3c25bfa3c71afd1bcbdbec98a407ed2388a372e025ed7d5d8861a83d64736f6c63430008140033","linkReferences":{}},"methodIdentifiers":{"createAgent(address[],uint8,address)":"36fec6f4","getAgentInfo(address,uint256)":"168f80f5","userToAgents(address,uint256)":"d7cf5522"},"id":30}